{
  "contractName": "Lottery",
  "abi": [
    {
      "inputs": [],
      "payable": false,
      "stateMutability": "nonpayable",
      "type": "constructor"
    },
    {
      "payable": true,
      "stateMutability": "payable",
      "type": "fallback"
    },
    {
      "constant": true,
      "inputs": [],
      "name": "lastWinner",
      "outputs": [
        {
          "internalType": "address",
          "name": "",
          "type": "address"
        }
      ],
      "payable": false,
      "stateMutability": "view",
      "type": "function"
    },
    {
      "constant": true,
      "inputs": [],
      "name": "manager",
      "outputs": [
        {
          "internalType": "address",
          "name": "",
          "type": "address"
        }
      ],
      "payable": false,
      "stateMutability": "view",
      "type": "function"
    },
    {
      "constant": true,
      "inputs": [
        {
          "internalType": "uint256",
          "name": "",
          "type": "uint256"
        }
      ],
      "name": "players",
      "outputs": [
        {
          "internalType": "address payable",
          "name": "",
          "type": "address"
        }
      ],
      "payable": false,
      "stateMutability": "view",
      "type": "function"
    },
    {
      "constant": false,
      "inputs": [],
      "name": "enter",
      "outputs": [],
      "payable": true,
      "stateMutability": "payable",
      "type": "function"
    },
    {
      "constant": false,
      "inputs": [],
      "name": "pickWinner",
      "outputs": [],
      "payable": false,
      "stateMutability": "nonpayable",
      "type": "function"
    },
    {
      "constant": true,
      "inputs": [],
      "name": "getPlayers",
      "outputs": [
        {
          "internalType": "address payable[]",
          "name": "",
          "type": "address[]"
        }
      ],
      "payable": false,
      "stateMutability": "view",
      "type": "function"
    }
  ],
  "bytecode": "0x608060405234801561001057600080fd5b50336000806101000a81548173ffffffffffffffffffffffffffffffffffffffff021916908373ffffffffffffffffffffffffffffffffffffffff160217905550610766806100606000396000f3fe6080604052600436106100555760003560e01c8063481c6a75146100575780635d495aea146100ae5780638b5b9ccc146100c5578063e97dcb6214610131578063f71d96cb1461013b578063fe188184146101b6575b005b34801561006357600080fd5b5061006c61020d565b604051808273ffffffffffffffffffffffffffffffffffffffff1673ffffffffffffffffffffffffffffffffffffffff16815260200191505060405180910390f35b3480156100ba57600080fd5b506100c3610232565b005b3480156100d157600080fd5b506100da6103e5565b6040518080602001828103825283818151815260200191508051906020019060200280838360005b8381101561011d578082015181840152602081019050610102565b505050509050019250505060405180910390f35b610139610473565b005b34801561014757600080fd5b506101746004803603602081101561015e57600080fd5b810190808035906020019092919050505061053b565b604051808273ffffffffffffffffffffffffffffffffffffffff1673ffffffffffffffffffffffffffffffffffffffff16815260200191505060405180910390f35b3480156101c257600080fd5b506101cb610577565b604051808273ffffffffffffffffffffffffffffffffffffffff1673ffffffffffffffffffffffffffffffffffffffff16815260200191505060405180910390f35b6000809054906101000a900473ffffffffffffffffffffffffffffffffffffffff1681565b6000809054906101000a900473ffffffffffffffffffffffffffffffffffffffff1673ffffffffffffffffffffffffffffffffffffffff163373ffffffffffffffffffffffffffffffffffffffff161461028b57600080fd5b600060018054905061029b61059d565b816102a257fe5b069050600181815481106102b257fe5b9060005260206000200160009054906101000a900473ffffffffffffffffffffffffffffffffffffffff1673ffffffffffffffffffffffffffffffffffffffff166108fc479081150290604051600060405180830381858888f19350505050158015610322573d6000803e3d6000fd5b506001818154811061033057fe5b9060005260206000200160009054906101000a900473ffffffffffffffffffffffffffffffffffffffff16600260006101000a81548173ffffffffffffffffffffffffffffffffffffffff021916908373ffffffffffffffffffffffffffffffffffffffff16021790555060006040519080825280602002602001820160405280156103cb5781602001602082028038833980820191505090505b50600190805190602001906103e192919061063b565b5050565b6060600180548060200260200160405190810160405280929190818152602001828054801561046957602002820191906000526020600020905b8160009054906101000a900473ffffffffffffffffffffffffffffffffffffffff1673ffffffffffffffffffffffffffffffffffffffff168152602001906001019080831161041f575b5050505050905090565b662386f26fc100003410156104d3576040517f08c379a00000000000000000000000000000000000000000000000000000000081526004018080602001828103825260298152602001806107096029913960400191505060405180910390fd5b60013390806001815401808255809150509060018203906000526020600020016000909192909190916101000a81548173ffffffffffffffffffffffffffffffffffffffff021916908373ffffffffffffffffffffffffffffffffffffffff16021790555050565b6001818154811061054857fe5b906000526020600020016000915054906101000a900473ffffffffffffffffffffffffffffffffffffffff1681565b600260009054906101000a900473ffffffffffffffffffffffffffffffffffffffff1681565b60004442600160405160200180848152602001838152602001828054801561061a57602002820191906000526020600020905b8160009054906101000a900473ffffffffffffffffffffffffffffffffffffffff1673ffffffffffffffffffffffffffffffffffffffff16815260200190600101908083116105d0575b50509350505050604051602081830303815290604052805190602001205090565b8280548282559060005260206000209081019282156106b4579160200282015b828111156106b35782518260006101000a81548173ffffffffffffffffffffffffffffffffffffffff021916908373ffffffffffffffffffffffffffffffffffffffff1602179055509160200191906001019061065b565b5b5090506106c191906106c5565b5090565b61070591905b8082111561070157600081816101000a81549073ffffffffffffffffffffffffffffffffffffffff0219169055506001016106cb565b5090565b9056fe4465706f736974206d696e696d756d20302e303120657468657220746f20656e74657220647261772ea265627a7a72315820824e96f280a94ad3323a3f17d110e83151639cd976a35d3654c647a1ab4da45e64736f6c63430005100032",
  "source": "pragma solidity >=0.4.22 <0.7.0;\r\n\r\n\r\n\r\ncontract Lottery {\r\n    \r\n    address public manager;\r\n    address payable[] public players;\r\n    address public lastWinner;\r\n    \r\n    \r\n    constructor() public {\r\n        manager = msg.sender;\r\n    }\r\n    \r\n    \r\n    function enter() public payable {\r\n        require(msg.value >= 0.01 ether , \"Deposit minimum 0.01 ether to enter draw.\");\r\n        players.push(msg.sender);\r\n        \r\n    }\r\n    \r\n    function random() private view returns (uint) {\r\n        uint(keccak256(abi.encodePacked(block.difficulty, now, players)));\r\n    }\r\n    \r\n    function pickWinner() public restricted   {\r\n        uint index = random() % players.length;\r\n        players[index].transfer(address(this).balance);\r\n        lastWinner = players[index];\r\n        players = new address payable[](0);\r\n        \r\n    }\r\n    \r\n    modifier restricted(){\r\n        require(msg.sender == manager);\r\n        _;\r\n    }\r\n\r\n    function getPlayers() public view returns (address payable[] memory){\r\n        return players;\r\n    }\r\n\r\n    function() external payable {\r\n        \r\n    }\r\n    \r\n    \r\n}\r\n",
  "sourcePath": "D:/Coding/lottery/contracts/Lottery.sol",
  "compiler": {
    "name": "solc",
    "version": "0.5.16+commit.9c3226ce.Emscripten.clang"
  },
  "schemaVersion": "3.2.5",
  "updatedAt": "2020-11-06T06:41:27.855Z",
  "networkType": "ethereum",
  "devdoc": {
    "methods": {}
  },
  "userdoc": {
    "methods": {}
  }
}